S013000057696567616E642D5553422E737265633B
S113000019C028C027C026C025C04DC023C022C0A7
S113001021C020C01FC01EC01DC01CC01BC01AC0F0
S113002019C018C017C016C015C014C013C012C020
S113003011C010C011241FBECFEFD2E0DEBFCDBF70
S113004021E0A0E0B1E001C01D92A630B207E1F7C3
S113005093D059C1D5CFCF93DF93EC01AC0120E00D
S113006030E0E0ECF0E066EC70E010C0908195FFC9
S1130070FDCF8FEC97E00197F1F700C00000DA01A3
S11300808D91AD01DB018C932F5F3F4FDE010D900D
S11300900020E9F71197AC1BBD0B2A173B0730F37F
S11300A0DF91CF9108951F920F920FB60F921124F2
S11300B08F939F93AF93BF934E991DC0809102017C
S11300C090910301A0910401B0910501880F991F3B
S11300D0AA1FBB1F8093020190930301A093040104
S11300E0B0930501809100019091010101969093D4
S11300F00101809300014F9930C0809102019091D9
S11301000301A0910401B0910501880F991FAA1F52
S1130110BB1F8093020190930301A0930401B09349
S113012005018091020190910301A0910401B09115
S113013005010196A11DB11D809302019093030155
S1130140A0930401B09305018091000190910101F5
S1130150019690930101809300018FEC97E0019741
S1130160F1F700C00000BF91AF919F918F910F9064
S11301700FBE0F901F901895CF93DF93CDB7DEB7C6
S1130180A1970FB6F894DEBF0FBECDBFE1E6F0E055
S113019080E880831082519A5098E1ECF0E08081ED
S11301A088618083E2ECF0E0808186608083109235
S11301B0C50086E38093C4003B9A389A84B1817069
S11301C084B956985798EDE6F0E08081806C80837E
S11301D0E8E6F0E08081846080837894189B25C0F1
S11301E0439880910001909101014A97B9F7609179
S11301F0020170910301809104019091050122E0B4
S113020030E0AE014F5F5F4F35D0CE01019623DF62
S11302101092020110920301109204011092050140
S11302201092010110920001D9CF439A80910001EC
S113023090910101829791F66091020170910301FE
S1130240809104019091050122E030E0AE014F5FFE
S11302505F4F10D0CE010196FEDE10920201109283
S113026003011092040110920501109201011092F1
S11302700001B4CF2532310518F4223008F004C04F
S1130280FA011082CA010895BB272A3051F4992338
S113029042F4BDE290958095709561957F4F8F4FA4
S11302A09F4F01C0BB27FA01A62F62177105810574
S11302B09105330B30FB66F0AA27660F771F881F62
S11302C0991FAA1FA21710F0A21B63953850A9F713
S11302D0A05DAA3308F0A95DA19336F7B111B193DB
S11302E01082CA0100C0DC01FC01672F71917723E1
S11302F0E1F7329704C07C916D9370836291AE17DD
S10D0300BF07C8F30895F894FFCF77
S9030000FC
